:020000040000FA
:1000000000700020250400003704000039040000BF
:100010003B0400003D0400003F040000000000001D
:10002000000000000000000000000000410400008B
:10003000430400000000000045040000311F0000E0
:100040003D0F0000670F00006D0F0000730F0000F0
:10005000790F00007F0F0000850F00008B0F00005C
:10006000910F0000970F0000430F0000490F0000A0
:100070004F0F0000550F00005B0F0000610F0000E4
:100080009D0F0000490400004904000049040000DD
:10009000490400004904000049040000490400002C
:1000A000D1170000D71700004904000049040000E0
:1000B000490400004904000049040000490400000C
:1000C00049040000490400004904000049040000FC
:1000D00049040000490400004904000049040000EC
:1000E00049040000490400004904000049040000DC
:1000F00049040000490400004904000049040000CC
:1001000049040000490400004904000049040000BB
:1001100049040000490400004904000049040000AB
:10012000490400004904000049040000490400009B
:10013000490400004904000049040000490400008B
:10014000490400004904000049040000490400007B
:10015000490400004904000049040000490400006B
:10016000490400004904000049040000490400005B
:100170004904000049040000350500002305000083
:100180003B050000290500002F0500004904000080
:10019000490400004D05000041050000490400002D
:1001A000470500004904000049040000490400001C
:1001B0005F050000530500004904000059050000D8
:1001C00049040000490400004904000049040000FB
:1001D00049040000490400004904000049040000EB
:1001E00049040000490400004904000049040000DB
:1001F00049040000490400004904000049040000CB
:1003F000490400004904000049040000FFFFFFFF1A
:020000040000FA
:10040000FFFFFFFFFFFFFFFFFFFFFFFFFE7FFFFF7D
:020000040000FA
:10041000DFF80CD000F054F8004800471525000024
:1004200000700020094872B6094880470948804793
:1004300062B609480047FEE7FEE7FEE7FEE7FEE793
:10044000FEE7FEE7FEE7FEE7FEE70000000400002F
:10045000411F0000D9240000110400002DE9F05FC5
:100460000546002092469B46884606468146402423
:100470001BE0284641464746224600F042F85346D4
:100480005A46C01A914110D311461846224600F030
:1004900029F82D1A67EB01084F462246012000215A
:1004A00000F020F817EB00094E41201EA4F10104D2
:1004B000DFDC484631462A464346BDE8F09F00004F
:1004C000064C074D06E0E06840F0010394E80700A1
:1004D00098471034AC42F6D3FFF79EFFE0260000A9
:1004E00000270000202A04DB203A00FA02F1002055
:1004F00070479140C2F1200320FA03F31943904062
:100500007047202A04DB203A21FA02F000217047CC
:1005100021FA02F3D040C2F120029140084319466B
:100520007047002000F0B2BF002000F0AFBF0020F5
:1005300000F0ACBF002000F0A9BF002001F0E0B83F
:10054000012000F0A3BF012000F0A0BF012000F0B7
:100550009DBF022000F09ABF022000F097BF02204A
:1005600000F094BF7CB500250446012279B9002033
:100570008DF803008DF804008DF801208DF805201A
:100580008DF802208DF806008DF8000069461C48A1
:10059000D0F80033C3F340630BB1022509E0D0F873
:1005A000003323F40003C0F800334FF08063C0F839
:1005B0000033FCB1F5B94B788C784FF4E06603F06A
:1005C000070306EA04242343C0F804330B7803F03E
:1005D0000303C0F808334B79897902EBC30242EA7E
:1005E000C151C0F800130A2400E0641E00F0EEF9C7
:1005F00008B114B102E0002CF7D1032528467CBDD8
:10060000004006402DE9F8430446C078214600F03A
:100610008DF805000DD1607F04F1100100F0D6F8CF
:10062000050006D194F8280004F1200100F04AF9F1
:10063000054600F0B9F9012806D0022807D00328A2
:1006400008D000264DB16EE004F13606FAE704F159
:100650003A06F7E704F13E06F4E7F078032810D0F5
:100660008DF80300B0788DF8020070788DF80100E5
:1006700030788DF80000684600F0D2FB05004DD0C0
:1006800051E0012594F828002F464FF0020960B18F
:1006900006208DF803008DF802908DF801708DF81A
:1006A0000070684600F0BCFB0546607F4FF0000814
:1006B00068B1012D0BD18DF803708DF802808DF893
:1006C00001708DF80070684600F0AAFB0546E078DE
:1006D00068B1012D0BD18DF803908DF802808DF853
:1006E00001808DF80080684600F09AFB0546D5B978
:1006F000A07BE11DFFF736FF050014D1F0788DF8DF
:100700000300B0788DF8020070788DF80100307821
:100710008DF80000684600F083FB03E0A07BE11D3C
:10072000FFF720FF05462846BDE8F8837CB5002585
:1007300006462C46012061B98DF804408DF8010071
:100740008DF805008DF802008DF806408DF8000048
:1007500069461D4AD2F80032C3F340630BB102254B
:1007600007E0D2F8003223F40003C2F80032C2F8E6
:10077000004216B30DBB4B788C784FF4E06603F063
:10078000070306EA04242343C2F804320B7803F07B
:100790000103C2F808320C794B79897900EB4400E7
:1007A00040EA830040EAC150C2F800021A2400E087
:1007B000641E00F01FF908B114B102E0002CF7D15B
:1007C000032528467CBD0000004006402DE9FF417E
:1007D000002506462846012391B98DF80A008DF8B8
:1007E00004008DF80B008DF805008DF808308DF8A9
:1007F00006008DF80C008DF809308DF80730694639
:100800002C4AD2F80041C4F340672B4C0FB10225AB
:100810000AE0D2F8007127F40007C2F800714FF027
:100820008067C2F80071606096B38DBB087A4E7A1B
:100830004FF4E06700F0070007EA06263043C2F8ED
:100840000401CF794FF0300C8E790CEA07174FF086
:10085000080C0CEAC60648793743042606EA8000ED
:100860000743C2F80871087930B14FF0011301282D
:1008700002D0022808D101E0087B01E0087B0F4B81
:1008800043EAC050C2F80001086860600C4C01E007
:100890000BE0641E00F0C6F808B9002CF9D1012164
:1008A000692000F083FF04B9032504B02846BDE8A1
:1008B000F0810000004006400484FF1F0100030097
:1008C00088E73000FEB500250246012741B10C46FD
:1008D000334ED6F80006C0F34060A0B102251CE0FC
:1008E00000208DF806008DF800008DF807008DF8C7
:1008F00001008DF804708DF802008DF805708DF8F8
:1009000003006C46E4E7D6F8000620F40000C6F8C1
:1009100000064FF08060C6F8000682B37DBB00F091
:1009200081F861784FF4E062491CB0FBF1F0207966
:10093000617900F0070002EA01210843C6F80406C5
:100940006178A07802EA01214FF4F81202EA00402F
:100950000143C6F80816207830B14FF00111012884
:1009600006D0022808D10BE0E07947EAC05001E048
:10097000E07907E0C6F800064FF47A7406E00DE06F
:10098000E079084941EAC050F4E7641E00F058F8E5
:1009900008B114B102E0002CF7D103252846FEBDB2
:1009A000004006400100030007484069C0B201282A
:1009B00004D0042805D0802801D0042070470320EB
:1009C000704702207047000000E007400748D0F859
:1009D0000013C1F3006139B1D0F80803044900F0F5
:1009E000030051F820007047002070470040064087
:1009F000702600000848D0F80012C1F3006141B130
:100A0000D0F8080210F0010F01D0044870470448E4
:100A100070470020704700000040064000127A0036
:100A200080841E000448D0F80001C0F30060002854
:100A300001D0024840687047004006400484FF1F10
:100A400010B50D4CD4F80006C0F30060002811D09A
:100A5000FFF7E8FF00280DD0D4F80816C1F30221F3
:100A6000491CB0FBF1F0D4F80816C1F30441103171
:100A70004143480810BD00000040064010B5044C3A
:100A800020602171A26023736373002010BD0000F9
:100A9000EC84FF1F70B5044600F058F805000BD138
:100AA00004F16C0000F00AF804F1440000F0A8F82A
:100AB00004F1740000F02CF8284670BD2DE9FC41CB
:100AC000060020D0706800281DD0002518E070684E
:100AD00005EB85040D4F015D0022384601F0ECF96D
:100AE0007068E21C211D825C415CCDE90012A11CF2
:100AF000435C611C425C015D384601F0EFF96D1CFE
:100B00003068A842E3D8BDE8FC81000000500640F0
:100B10000178002917D00C4942788B78D24303F032
:100B20007F0343EAC2128A7090F90200002803DAB8
:100B3000202240FA82F040B20A7900F01F0002F051
:100B4000E00210430871704700D0074038B5040038
:100B50004FF000004FD0284D2969C1F303610329EC
:100B600015D0FFF733FF20B900210120FFF7FAFC71
:100B700068B903208DF8030000218DF802100121CF
:100B80008DF801108DF80000684600F049F9002842
:100B900031D12046FFF736FD00282CD194F83010D3
:100BA00011B1164AE16A116094F8351051B194F808
:100BB00034102A6A4FF0706322F0706203EA016118
:100BC0001143296294F84310002914D004F136012E
:100BD000012000F093F800280DD104F13A01022021
:100BE00000F08CF8002806D104F13E01BDE8384041
:100BF000032000F083B838BD004006400484FF1F86
:100C000038B5044600783B4D80B16278A078E17831
:100C10006B68000723F47F6343EAC22242EA106054
:100C20004FF4E06202EA012101436960207938B1A2
:100C300060790090A379E279217A284601F066F97B
:100C4000207F18B3617F286C20F0010008432864DE
:100C5000A17F286C20F0020040EA41002864E17F77
:100C6000286C20F0040040EA8100286494F82000F9
:100C7000296C21F0080141EAC000286494F8211091
:100C8000286C20F0100040EA01102864207B60B13D
:100C90000020194900E004D204EB8002126941F8F7
:100CA0002020401CC0B20328F5D394F8220000286D
:100CB0001ED0A86E4FF00000A86694F82410686853
:100CC00020F480524FF4805000EA013040EA0200E4
:100CD000686014F8231F4FF00E03A078E27803EA4F
:100CE000400040EA017002F0010140EA0100A866FC
:100CF00038BD000000800440FC84FF1F2DE9F04750
:100D00000C46897800274E1C62788046491C38467C
:100D10003D46521C11FB02FA2278521C11FB02F9CB
:100D2000E178012906D0022907D0032908D0062935
:100D30000BD108E0FFF776FE07E0FFF75BFE04E06B
:100D4000FFF744FE01E0FFF77BFE4146B8F1010FDB
:100D500005D0022906D0B8F1030F03D101E0012527
:100D600000E002252C4A05EB450152F8213073437F
:100D700083420BD302EB81014A6802FB0AF28242F2
:100D800004D3896801FB09F1814201D201273FE0C8
:100D90004FF070610A12214B4046B8F1010F05D0A7
:100DA000022814D0B8F1030F32D121E0E678A578FB
:100DB000607801EA066102EA0542247811430007DF
:100DC00041EA106104F00F000143596120E0E67828
:100DD000A578607801EA066102EA054224781143A9
:100DE000000741EA106104F00F00014399610FE030
:100DF000E578A078667801EA056102EA00400143DF
:100E0000247806F0F000014304F00F000143D9619B
:100E10003846BDE8F08700004C2600000040064040
:100E200070B50546FFF7C0FD2946FFF767FF0200D2
:100E30000DD1084CE9780A202369401EC3F30363EF
:100E40008B4202D00028F7D100E000B903221046FF
:100E500070BD0000004006402DE9F8430E468DF8B5
:100E60000000804600258DF8011000F08BFC324F09
:100E700040F20319387B787301208DF802000024BA
:100E800010E0B86850F8240050B10179022907D069
:100E9000026881686846904710B17C734D46B6B3CE
:100EA000641CE4B2387BA042EBD80DB1012E2FD1E7
:100EB0003968B94651F82800FFF7ECFD05000CD061
:100EC00000204146C84689F8051000B302208DF87D
:100ED000020000244FF4827714E00120F1E7D8F8F3
:100EE000080050F8240058B10179012908D002689F
:100EF00081686846904718B188F80D403D46B6B104
:100F0000641CE4B298F80C00A042E8D80FE0FFE7B8
:100F100000208DF80200B86850F8240018B102686B
:100F200081686846904714B1641EE4B2F3E700F0AC
:100F300031FC2846BDE8F883EC84FF1F002000F058
:100F4000D3B80A2000F0D0B80B2000F0CDB80C20A8
:100F500000F0CAB80D2000F0C7B80E2000F0C4B8E9
:100F60000F2000F0C1B8012000F0BEB8022000F050
:100F7000BBB8032000F0B8B8042000F0B5B80520D5
:100F800000F0B2B8062000F0AFB8072000F0ACB80F
:100F9000082000F0A9B8092000F0A6B800F078B841
:100FA0002DE9FC410C460546DDE90801DDE90A862C
:100FB000CDE900012146284600F012F804000AD1CC
:100FC000064F42462946384600F007F93246294680
:100FD000384600F0ECF82046BDE8FC810080004077
:100FE0002DE9FC5F81460C9D8B4600270120A8401F
:100FF0000D999046C0B2B1FBF0F2244E00FB1210E6
:101000009A4608B101273EE04946304600F0AFF865
:1010100006EB491404F58054C4F80080C4F810A00D
:10102000002300951A4649463046019500F0B0F875
:101030004FF0010000FA05F040B25FEA0B014FF0FB
:10104000000280B207D0012907D0022907D0BBF1E6
:10105000030F09D106E0A28002E0A08003E0A08097
:10106000A08201E0A280A282494630460D9A00F09B
:10107000D4F801224946304600F0AFF80122494633
:10108000304600F09FF83846BDE8FC9F00800040E5
:1010900070B5134E0024F56A19E0E80714D0002259
:1010A0002146304600F05EF80E48006850F82410E3
:1010B00051B13477F477B477012008734A681AB1D4
:1010C0000B7B8868194690476D08641CE4B20DB12B
:1010D000102CE2D3306820F02000306070BD00009A
:1010E000008000401484FF1F0749096851F8202040
:1010F00006490877C877002A05D05368002B02D02C
:10110000117B9068184770471484FF1F00800040CF
:10111000044B1A5C01F03F0102F0C0021143195464
:101120000020704700100240034A02EB401000F517
:101130008050C160704700000080004010B501463B
:101140000248012200F00EF8002010BD008000408F
:1011500010B501460248002200F004F8002010BD3E
:10116000008000400AB1C17670478176704700EB7D
:10117000411000F58050002202608280C2808260AF
:10118000C26002618282C28282618283C2837047AE
:1011900030B5D202DDE9034500EB411042EA0422FA
:1011A00045EAC30300F580501343C38030BD00EB14
:1011B000411000F58050818B21F0080141EAC20105
:1011C0008183704700EB411000F58050818B21F046
:1011D000020141EA42018183704700EB411000F5B2
:1011E0008050C18B0904C18B0AD501F47E43C2F340
:1011F000080141EA0302C283C28A02F47E4209E086
:1012000001F40043C2F30E0141EA0302C283C28A21
:1012100002F400421143C1827047036800EB4110A1
:101220001B0600F5805010D5816811F0004F06D4E0
:101230008168490003D422F0404181607047816891
:10124000C2F309026FF309010A4382607047016A21
:10125000490702D007210162006A704701F01F03AD
:1012600001229A40202900D20263704770B51F49BD
:1012700051F820501E4951F8204094F80901F8B166
:10128000256894F8080105F10806FFF761FF286852
:10129000810202D46968890C6960C0F3034085F853
:1012A0004800306800BA3060706800BA706000258D
:1012B0002560A07910B1201D00F0ECFD657170BDB6
:1012C00000220521284600F002FA002206212846C5
:1012D00000F0FDF900220721284600F0F8F900226D
:1012E0004FF48041284600F0E0F9E0E7C026000016
:1012F0000885FF1F70B50E460D49002251F82040A9
:101300000C4951F820503146204600F0E0F9002207
:101310004FF48041204600F0C8F905EBC604A079DF
:1013200010B1201D00F0B6FD0020607170BD0000FE
:10133000C02600000885FF1F082809D9093807289A
:1013400013D2DFE800F00406080A0C0E10000C208F
:1013500070471020704714207047182070472020D5
:1013600070473020704740207047FF2070472DE9BC
:10137000F05F144682468B464FF0000800F05DF89F
:101380000546061D0068371D04F10809C0F3034037
:10139000FFF7D2FF024684F84800DAF800004FF465
:1013A000407100F07F035B4500D88846DAF8000002
:1013B00080000CD5DAF83400C0F30360C0000830B8
:1013C0008008401D834502D80846BDE8F09FB8F16B
:1013D000000F23D1286820608002306800D4800C80
:1013E0006060002022F0030507E020F003017B5835
:1013F000001D1EBA49F80160C0B28542F5D80BE065
:1014000000F0030320F00301C3F103031944795CE6
:101410002318401C1972C0B29042F1D34046D4E761
:1014200002460020202907D2906A126B024001F088
:101430001F00C24002F00100704730B50B46044661
:1014400000F015F808304FF40071C2B2B1FBF2F0B1
:10145000C0B2B3FBF0F1B3FBF0F500FB1530C901EE
:10146000920800FB021004EB8000803030BD016860
:10147000C1F3C02141B1D0F8000CC0F301410120FB
:10148000C91C8840C0B270470820FBE72DE9F04135
:1014900007464948002494B050F827604748214641
:1014A00050F827503046FFF7BBFF06E0641C21468A
:1014B0003046FFF7B5FF202C01D8C107F6D0002831
:1014C00074D03068052CC0F3407017D1B0B1687982
:1014D000012841D13AA000F055FD2968304600F0BE
:1014E000BEF83846FFF7C2FE21463046FFF7B6FE8B
:1014F000D5F8003183B32A4601212BE005EBC40067
:101500004079012828D12146304600F097F818BBD1
:1015100032A000F037FD55F8342021463046FFF761
:1015200026FF3449804601200870414632A000F071
:1015300029FDB8F1000F0FD1B06821463846FFF7FA
:10154000D9FE21463046FFF789FED5F800311BB1A0
:101550002A4600213846984705EBC400804640796A
:10156000022823D12BA000F00DFD21463846FFF7BD
:10157000C1FE98F8070070B12146304600F05EF8D1
:101580006A4621463046FFF7F2FEB0680098C0F385
:101590000360042803D121463046FFF75FFED5F8EB
:1015A00000311BB12A4602213846984714B0304614
:1015B000BDE8F041FFF74BBEC02600000885FF1FC5
:1015C000464C455843414E5F497352784669666FB1
:1015D000456E61626C65640A00000000464C455827
:1015E00043414E5F4C6F636B52784D736742756633
:1015F000660A00000084FF1F476574205258204D82
:1016000042206669656C642076616C7565733A206A
:1016100025640A00436865636B206D61696C626FC5
:101620007820636F6D706C65746564207472616E90
:10163000736D697373696F6E200A000070B50C4694
:101640000546FFF7FAFE02462968002001F07F01F7
:10165000A14202D84FF4407070BD116870BD2DE9F1
:10166000F04100F1800600F1880830680C46371D13
:1016700001F10805C0F30340FFF75EFE024684F85F
:101680004800306820608002386800D4800C6060B8
:10169000002006E020F0030158F80130001D1BBABD
:1016A0006B509042F6D3BDE8F0816AB1B1F5806F1E
:1016B00002D0B1F5006F03D1026842F4001202605B
:1016C00042680A434260704742688A43FAE730B58D
:1016D0000468002304F07F048C4202D84FF4407366
:1016E0000BE001F01F050124AC40202905D2816ADE
:1016F0000AB1214300E0A1438162184630BD0000D9
:101700002DE9F041074617A000F03CFC1B4850F8BB
:1017100027401B48D4F8086B50F82750D5F8000133
:1017200000281DD0B0030BD5D4F8080B40F40030CE
:10173000C4F8080BD5F800312A46032138469847EB
:10174000F0030DD5D4F8080B40F48030C4F8080B32
:101750002A463846D5F80031BDE8F0410421184743
:10176000BDE8F081464C455843414E5F57616B657B
:10177000557048616E646C65720A0000C0260000F6
:101780000885FF1F72B602480168491C0160704756
:101790000C84FF1F04490868002804DD401E08600F
:1017A000002800DC62B670470C84FF1F912809D224
:1017B000064B420903EB821200F01F030120984000
:1017C00009B15060704790607047000000F00F4012
:1017D000002000F003B9002000F0F2B97FB50C46FC
:1017E0000146237C0025104A2078012683B102EBB4
:1017F00041014978FFF78CFCE068CDE90056CDE95E
:101800000205D4E9012361782078FFF7C9FB7FBD89
:1018100012F81110FFF77CFCE068CDE90056CDE925
:101820000205D4E90132EEE7A7260000817AC07AEA
:10183000814201D101207047002070472DE9F0411D
:1018400016460D461F460446002241F6034100F0AD
:1018500011FB3FB1206940F480702061206940F4A1
:101860000070206116B14FF40070206695F82700D3
:1018700048B928690028E06902D020F0020001E0A0
:1018800020F00100E06100206861A861E860286143
:10189000012085F82200BDE8F08170B514460D46A0
:1018A000064608E0286FE1680870E068401CE060C8
:1018B0002069401E2061E86DC0F3024000282069C5
:1018C00002D00028EED110E078B1A96DC1F301413A
:1018D000814209D3A96D4FF44032401E21F44031BA
:1018E00002EA00400843A86570BD94F82320002355
:1018F00021462846FFF7A2FF94F82600012803D1CD
:1019000004F1250000F0C6FA0020A083E36A002B52
:10191000EAD03046226BBDE87040012118472DE91E
:10192000F04705460E4614461046FFF77FFF4FF07E
:10193000000948B16069F0B3A06960B32146304640
:10194000BDE8F04700F0C6B8F06D354600F0070678
:10195000284600F081FA8046671D0BE0E07A215CA2
:10196000C05D00EB01202866E07A401CE072E86D63
:1019700000F007062046FFF759FF08B94645EDD3AA
:101980002046FFF753FF002803D084F80B9084F81B
:101990000A90BDE8F08794F82320002321463046C2
:1019A000FFF74CFF94F82600012803D104F125002D
:1019B00000F070FA00E00AE0A4F81C90E36A002B43
:1019C000E7D02846226BBDE8F04700211847304693
:1019D000BDE8F0470022012100F04CBA70B5064680
:1019E0003A4850F826503A4850F82640686910F0B6
:1019F000010F04D0224629463046FFF790FF686960
:101A0000C0F3400020B1224629463046FFF745FF8B
:101A10006869C0F30030C0B14FF4805068610120A4
:101A2000A0830346002221462846FFF707FF94F8CB
:101A30002600012803D104F1250000F02BFAE36A07
:101A40001BB102213046226B98476869C0F3C02061
:101A5000C8B14FF400606861012300222146284686
:101A6000FFF7ECFE94F82600012803D104F12500CD
:101A700000F010FA40F20320A083E36A1BB10321B7
:101A80003046226B98476869C0F3802000281CD03C
:101A90004FF48060686194F82600012803D104F1B6
:101AA000250000F0F7F94FF40070A0830123002215
:101AB00021462846FFF7C2FEE36A002B05D03046D8
:101AC000226BBDE870400421184770BDAC260000B1
:101AD0001884FF1F2DE9F0410646C06D0C4600F04A
:101AE0000705304600F0B8F907462046FFF79EFE8E
:101AF00068B9BDE8F0816069007830666069401CB3
:101B00006061A069401EA061F06D00F00705A0694A
:101B10000028EED0BD42EED3EBE770B50C4605468B
:101B2000002240F6077100F0ACF9607E58B9A06859
:101B30000028D5F81C0102D020F0020001E020F0BE
:101B40000100C5F81C01D5F8100120F00100C5F80E
:101B500010010020A0702061A060E06070BD000056
:101B600070B5D1F8501114460546D369C80713D093
:101B70002BB1607D18B102212846226A9847607E09
:101B8000012806D10D480122114650F8250000F029
:101B900078F90020A07506E02BB1607D18B1042112
:101BA0002846226A9847607E20B9607D10B1284699
:101BB00000F00CF90220208070BD0000AC2600006F
:101BC0002DE9F0410646784850F82650774850F8FD
:101BD000264077A000F0D6F9D5F81401C0F38000B4
:101BE00020B1224629463046FFF7BAFFD5F8140146
:101BF0004FF0010810F0010F1ED00121284600F01F
:101C000032F9C8B1A17D3046012902D140F201214B
:101C10002180616831B9E369F3B11021226A9847E4
:101C20006068C8B1E0680078C5F86001E068401CF1
:101C3000E0606068401E6060D5F8140140F2022741
:101C4000C0F34000F8B10221284600F00CF9D0B1F1
:101C5000A168304631B10CE084F81680FF20C5F849
:101C60006001E9E7E3695BB32021226A9847A06835
:101C700030B3D5F87001216908702069401C2061DB
:101C8000A068401EA060D5F81401C0F3402000B148
:101C90000120D5F81411C1F3002101B1012108433D
:101CA0002DD04FF40070C5F814014010C5F8140190
:101CB00000220121284600F0E4F8607E20B106E011
:101CC0002780D5F87001DEE7A07EFFF741FA208873
:101CD000022801D100202080607D50B9214628468D
:101CE000FFF71BFF207E012803D104F1170000F04D
:101CF000D1F8E3691BB180213046226A9847D5F8B4
:101D00001401C0F3802010B3A4F800804FF4806069
:101D1000C5F8140100220121284600F0B2F8607EC7
:101D200010B9A07EFFF714FA607D50B9214628460D
:101D3000FFF7F3FE207E012803D104F1170000F025
:101D4000A9F8E3691BB180213046226A9847D5F88B
:101D50001401C0F3C020002824D027804FF4006075
:101D6000C5F8140100220121284600F08AF8607E9F
:101D700010B9A07EFFF7ECF9607D50B921462846E6
:101D8000FFF7CBFE207E012803D104F1170000F0FD
:101D900081F8E369002B05D03046226ABDE8F041A6
:101DA00080211847BDE8F081AC2600001C84FF1F8D
:101DB0004C50493243305F536C6176655F495251F4
:101DC00048616E646C65720A0000000030B52049FD
:101DD000002285B051F820501E4951F820400121C1
:101DE0006368002BA37E8DF800300AD08DF80110B7
:101DF00005F5B0710191E16802918DF810206168DC
:101E000009E08DF8012005F5B8720192226902926D
:101E10008DF81010A16803916946FFF7DFFC606838
:101E200041429DF80000FFF77FF99DF80000FFF7A1
:101E300085F960680028D5F81C0102D040F0010047
:101E400001E040F00200C5F81C0105B030BD000003
:101E5000AC2600001C84FF1F4068012100F00F0029
:101E6000814088B27047D0F8182100200A4200D083
:101E70000120704783690AB10B4300E08B43836103
:101E80007047D0F818310AB10B4300E08B43C0F81B
:101E90001831704770B504460025FFF773FC2078B1
:101EA000FF2803D02078401C207000E00125FFF7B8
:101EB00071FC284670BD0000074B002A33F8111052
:101EC00050F8212002D042F0804201E022F080420E
:101ED00040F82120704700005E25000070B54FF0EB
:101EE000E066DDE9044506EA0363082606EAC5055F
:101EF0002B4304F00704234343EA8272024B33F876
:101F0000111040F8212070BD5E25000030B5046935
:101F1000039D24F03F040C430C2144EA420201EAF1
:101F200083011143302202EA05120A43026130BDE7
:101F300002480168491C0160704700001084FF1FBF
:101F40000A48016841F4700101600948016821F004
:101F500080410160084807494160416842F2201110
:101F600001604FF6FF7181607047000088ED00E06E
:101F700034EF00E020C528D900200540FFF702BC5F
:101F8000FFF708BC0FB4054B10B503A9044A02982B
:101F900000F030F810BC5DF814FB00006D24000068
:101FA000E884FF1F0FB41CB50246002007AC0029CF
:101FB0000BD0491ECDE90021054B6A462146069803
:101FC00000F018F8009A002111701CBC5DF814FB99
:101FD0005724000002E008C8121F08C1002AFAD1E5
:101FE00070477047002001E001C1121F002AFBD199
:101FF000704700002DE9FF4F8DB00F4605460026C3
:1020000006E025280BD0DDE90F1290476D1C761CE9
:1020100028780028F5D111B03046BDE8F08F0024B3
:10202000A246A1460122EC4900E0044315F8013F15
:10203000203B02FA03F00842F7D128782A2810D072
:102040006FF02F022878A0F13001092914D80AEB8B
:102050008A0102EB410144F0020400EB010A6D1C0D
:10206000F0E701CF5FEA000A03D544F40054CAF157
:10207000000A44F002046D1C28782E2817D115F8A8
:10208000010F44F004042A280ED06FF02F022878A4
:10209000A0F1300109290AD809EB890102EB4101BD
:1020A00000EB01096D1CF2E757F8049B6D1C2878C2
:1020B0006C280FD006DC4C2817D068280DD06A2871
:1020C00014D104E0742810D07A280FD10DE044F424
:1020D00000140AE044F4801401E044F440146978E8
:1020E000814202D104F580146D1C6D1C2A786E2A81
:1020F0001FD00CDC632A31D004DC002A8BD0582A94
:1021000011D1A3E0642A68D0692A0CD165E0732A52
:102110002ED004DC6F2A73D0702A04D19BE0752A7C
:102120006FD0782A6ED01046DDE90F129047761CEA
:1021300050E1C4F30250022806D0032809D0042835
:1021400001CF09D0066045E101CFF117C0E9006178
:1021500040E101CF06803DE106703BE117F8040B3A
:102160008DF8000000208DF80100EB46012003E00F
:1021700057F804BB4FF0FF3061074FF0000102D465
:102180000DE008F10101884649450FDA8045F8DB8A
:102190001BF808100029F4D108E008F10101884675
:1021A0008142FADB1BF808100029F6D1DDE90F2384
:1021B000AAEB08008146214600F036F9304400EBD6
:1021C000080604E0DDE90F121BF8010B9047B8F197
:1021D0000108F7D221464846F7E00A21C4F302532A
:1021E0004FF0000B0891022B04D001CFC117032B35
:1021F00009D00AE0FF1D27F00707F7E8020108E011
:1022000032E01FE020E000B2C117042B01D140B240
:10221000C117031E71F1000307DA4FF0000CD0EB79
:102220000C006CEB01012D2302E0230504D52B23C8
:102230008DF82430012303E0E30701D02023F7E7E2
:10224000984658E00A2110E010210EE010204FF0CF
:10225000000B08900CE010214FF0000B44F0040438
:102260004FF00809089103E008214FF0000B089196
:10227000C4F30253022B04D001CF0021032B06D05C
:1022800006E0FF1D27F00707F7E8020103E080B230
:10229000042B00D1C0B24FF0000823072BD5702AC1
:1022A00007D0DDF820C08CF0100C5CEA0B0C05D0D8
:1022B0000EE040238DF82430012308E050EA0103AA
:1022C00006D030238DF824308DF82520022398463F
:1022D000DDF820C08CF0080C5CEA0B0C0BD150EA46
:1022E000010301D1630706D530238DF824304FF068
:1022F0000108A9F10109582A04D038A20B9208AAB2
:102300000A920BE03AA2F9E75B46089AFEF7A6F8B4
:102310000B9B9B5C0A9A521E0A92137050EA0102B0
:10232000F2D10A98ADEB000000F1200B600702D556
:1023300024F4803401E04FF00109D94502DDA9EB16
:102340000B0000E0002000EB0B0141440890AAEBD9
:10235000010AE00306D4DDE90F232146504600F0D0
:1023600063F806444FF0000908E009A911F80900D4
:10237000DDE90F12904709F10109761CC145F4DB34
:10238000E0030CD5DDE90F232146504600F04CF860
:10239000064404E0DDE90F1230209047761C0899CE
:1023A000481E08900029F5DC08E00A980A99007890
:1023B000491C0A91DDE90F129047761CBBF1000120
:1023C000ABF1010BF1DC21465046DDE90F2300F0B3
:1023D00019F806446D1C1BE6092801003031323320
:1023E0003435363738396162636465660000000051
:1023F000303132333435363738394142434445463B
:10240000000000002DE9F041044600251E46174655
:10241000880404D405E039462020B0476D1C641EB2
:10242000F9D52846BDE8F0812DE9F04104460025A4
:102430001E469046C80301D5302700E020278804B7
:1024400004D505E041463846B0476D1C641EF9D5F9
:102450002846BDE8F0814A68002A06D00A68531C65
:102460000B6010704868401E486070477FB5C1B26D
:10247000144C0A2908D00D2903D060690002FCD54C
:10248000E16104B0002070BD0D2160690002FCD53F
:10249000E1610A2160690002FCD5E1610A48036834
:1024A0000AA210216846FFF77DFD00216D4606E077
:1024B0006B5C62691202FCD5E361491CC9B28142BE
:1024C000F6DBDEE700A006401084FF1F5B502025EE
:1024D0003130755D2000000030B50A490A4A0B4CC6
:1024E00091420DD00A4B00205B1A04E052F82050B4
:1024F00041F82050401CB0EB930FF7D3216030BD62
:10250000226030BD0080FF1F0000000008ED00E0E9
:102510000084FF1FFFF732FDFFF732FD00F002F8E5
:10252000FEE7000010B50023054A01210548FEF72B
:10253000A5FA0121BDE810400020FEF78DBC000087
:10254000E484FF1FE084FF1F000100010102030279
:1025500003010600010203FF010203FFFF06000062
:10256000000000000000000000000000000000006B
:10257000000000000000000000000000000000005B
:10258000000000000000000000000000000000004B
:10259000000000000000000000000000000000003B
:1025A000000000000000000000000000000000002B
:1025B000730032002100610049004A004B004C00CA
:1025C0004D003D000000240025002B0036003100A6
:1025D000000020000000380039003A00260000000A
:1025E0003B0027005A00660037002C002D002E000B
:1025F00040006A006B006C0000000000000000005A
:1026000000000000000000000000000000000000CA
:102610000000000000000000000000414141414175
:10262000000000000020202020202020202020006A
:10263000404040404000800048484848003030302A
:1026400030303030303630303000000000093D008E
:1026500000093D0040420F0000B4C404005A620269
:10266000B0F3960100FCAC06007E5603003FAB01C0
:10267000006CDC0200751903007E5603008793038B
:10268000000102030405060708090A0B0C0D0E0FD2
:1026900000000102030405060708090A0B0C0D0ED1
:1026A0000F0000001819442D2C00000000600640A7
:1026B0005080804F565D4E555C51585F528080006F
:1026C000004002400050024000B0024007000000FD
:1026D00004000000010000000000000001000000F4
:1026E000002700000084FF1FEC000000D41F000042
:1026F000EC270000EC84FF1F28000000E41F00000E
:1027000000000000000000000000000000000000C9
:1027100000000000000000000000000000000000B9
:102720002B010000003401000000350102000036DA
:10273000010200003A0100000044010200004A01C9
:102740000200004B010000004C010000002D0100C0
:1027500000002E010000002F0100000030010000E9
:102760000031010000000000010101010001000032
:10277000010100000100010000127A0000010002C6
:10278000010100000001000000000C000101000038
:102790000100000000000000010000000301010131
:1027A0000003030001020301000600010100000014
:1027B0000100000101000000010000000000000015
:1027C0000000000000000000010101010101010101
:1027D000000000000E0000002084FF1F0101000027
:0C27E0006884FF1F0000000000000000E3
:0400000500000411E2
:00000001FF
